:1000000020C03AC039C038C037C0A9C235C034C0DA
:1000100033C032C031C030C02FC02EC02DC001024D
:100020000000040001020408102002020202020281
:100030000000000036000000000038000000000052
:10004000370011241FBECFE5D2E0DEBFCDBF10E0E8
:10005000A0E6B0E0ECE9F8E002C005900D92A2370E
:10006000B107D9F720E0A2E7B0E001C01D92A539A1
:10007000B207E1F70BD410C4C3CF61E084E03BD3F7
:1000800060E081E038D361E084E07FD385E790E0F1
:100090002CD162E685E790E029D160E085E790E029
:1000A0002BD161E885E790E027D185E790E04BD13F
:1000B0006AE070E080E090E0C1D262E685E790E01F
:1000C00015D161E085E790E017D165E185E790E023
:1000D00013D185E790E037D162E685E790E006D15D
:1000E00068E085E790E008D16AEA85E790E004D10E
:1000F00085E790E028D16CE485E790E0F7D067E0F1
:1001000085E790E0F9D060E085E790E0F5D085E7FD
:1001100090E019D16CE485E790E0E8D065E085E7F0
:1001200090E0EAD060E085E790E0E6D085E790E0F7
:100130000AD16CE485E790E0D9D066E085E790E0ED
:10014000DBD060EE85E790E0D7D085E790E0FBD08C
:100150006CE485E790E0CAD069E085E790E0CCD018
:1001600060EE85E790E0C8D085E790E0ECD06CE4E5
:1001700085E790E0BBD064E085E790E0BDD062E029
:1001800085E790E0B9D085E790E0DDD06CE485E7C5
:1001900090E0ACD06AE085E790E0AED060E085E723
:1001A00090E0AAD085E790E0CED06CE485E790E0BF
:1001B0009DD067E085E790E09FD061E885E790E01B
:1001C0009BD085E790E0BFD06AE070E080E090E0EF
:1001D00035D262E370E080E090E030D260E084E00D
:1001E000D4D262E370E080E090E028D261E084E065
:1001F000CCD264E670E080E090E020D260E084E061
:10020000C4C2CF93DF93D82FC62F62E685E790E074
:100210006DD06D2F85E790E06FD06C2F85E790E073
:100220006BD085E790E0DF91CF918DC081E0F5D272
:10023000909374008093730085E790E056D06CE44F
:1002400085E790E053D063E085E790E055D085E7FF
:1002500090E079D06CE485E790E048D041E06CE430
:1002600085E790E072D085E790E08FD0892B31F060
:1002700085E790E07FD080937200F5CF85E790E02E
:1002800062D06091730084E080D28091730090917D
:100290007400019749F5A0916100B0E0A759BF4FE4
:1002A000E0916000F0E0EE59FF4F6C918081A9DF92
:1002B000809161008F5F883018F48093610008C0DE
:1002C00081E080936100809160008F5F8093600087
:1002D00080916000853018F081E0809360006AE0D2
:1002E00070E080E090E0AAC1089557C010927800B5
:1002F000660F609379000895E0917800E23150F440
:10030000EF5FE0937800F0E0E758FF4F608381E013
:1003100090E0089580E090E00895CF93C62F60911B
:1003200078006F5F89E790E0F0D010927800882322
:1003300029F0CC2329F0ECD0811102C0CF9138C034
:1003400080E0CF91089561E0E8CF1092770040936C
:100350007600660F61606093790061E0640F89E761
:1003600090E0D3D0882319F0D3D0811101C020C0F0
:1003700080E00895E0917700EF5FE0937700F0E090
:10038000E758FF4F808190E008958091760090E0DB
:1003900020917700821B91090895C09AC29ABA9A57
:1003A000B89A8FEF8FB98AE28DB980EF8EB9089530
:1003B00080918B0008958EB98BE29DE09A95F1F7BC
:1003C00000008DB9B29BFECF9AE09A95F1F700C07C
:1003D0008DB9769BF2CF8DE08A95F1F700008FB151
:1003E0009FEF9FB9B89A0895C29AC29BFECF8DE045
:1003F0008A95F1F70000C0988AE08A95F1F700C06D
:10040000C298C09A779905C083E080938B0080E002
:10041000089581E00895AF92BF92CF92DF92EF925C
:10042000FF920F931F93CF93DF93EC01C62E809121
:100430008B00816080938B00988190FD03C0826067
:1004400080938B00D1DF882309F454C0FC2C8E01EB
:10045000BB24BA94AA24A39420918B002370C801D2
:100460000196222371F1C298D82EE92EF8018081DD
:100470008FB980EFA0DFB8988EEF9DDF90918B0051
:1004800080FF0BC0892F817090FF05C081E08093B1
:100490008B0080E02FC092E00DC0892F85708430E2
:1004A00061F4888181608883A0928B009DDF811137
:1004B00018C09AE090938B001DC09E7F90938B0094
:1004C00013C0B898D82EE92E80EF75DFF80180832D
:1004D000F1E0FF1202C0BFB801C01FB88EEF6BDFA2
:1004E00003C0FC2CDC2EED2EFA9419F00D2D1E2DE0
:1004F000B3CF81E0DF91CF911F910F91FF90EF90EB
:10050000DF90CF90BF90AF90089510928B0083CF73
:10051000C098C29AB29BFECF8AE08A95F1F700C0DC
:10052000C09A8DE08A95F1F700009EB1892F807204
:1005300095FD04C094E090938B00089581E00895A8
:1005400080B7807F80BF80B7806880BF8CB58064B3
:100550008CBD8FEF8DBD80B7876080BF08951F92DF
:100560000F920FB60F9211242F933F938F939F9367
:10057000AF93BF9380918D0090918E00A0918F00DA
:10058000B091900030918C0026E0230F2D3730F091
:1005900029E8230F0396A11DB11D03C00296A11DDA
:1005A000B11D20938C0080938D0090938E00A093BA
:1005B0008F00B09390008091910090919200A09153
:1005C0009300B09194000196A11DB11D80939100FC
:1005D00090939200A0939300B0939400BF91AF9139
:1005E0009F918F913F912F910F900FBE0F901F9071
:1005F00018953FB7F8948091910090919200A09146
:100600009300B091940022B708B601FE05C02F3FB9
:1006100019F00196A11DB11D3FBF6627782F892FC4
:100620009A2F620F711D811D911D43E0660F771F88
:10063000881F991F4A95D1F708950895CF92DF92A8
:10064000EF92FF92CF93DF936B017C01D2DFEB013E
:10065000C114D104E104F10479F0EFDFCADF6C1BAF
:100660007D0B683E7340A0F381E0C81AD108E10811
:10067000F108C851DC4FF2CFDF91CF91FF90EF909E
:10068000DF90CF9008958AB582608ABD8AB5816077
:100690008ABD83B7887F836083BF789489B782607F
:1006A00089BF4EDF86B18877866886B9379A089504
:1006B000813031F48AB58F778ABD8AB58F7B07C0C8
:1006C000823039F48AB58F7D8ABD8AB58F7E8ABD26
:1006D0000895833039F480B78F7D80BF80B78F7ED7
:1006E00080BF0895843031F48CB58F7D8CBD8CB57E
:1006F0008F7E8CBD0895CF93DF9387FF0FC08F77D8
:1007000041F0813041F0823041F0833039F08FEF99
:1007100005C085E003C082E001C084E090E0FC01F8
:10072000EC5DFF4F2491FC01E65DFF4F849188232F
:1007300049F190E0880F991FFC01E45CFF4FA591FF
:10074000B4918A5C9F4FFC01C591D4919FB7611110
:1007500008C0F8948C91209582238C938881822301
:100760000AC0623051F4F8948C91322F3095832373
:100770008C938881822B888304C0F8948C91822B7F
:100780008C939FBFDF91CF9108950F931F93CF93C9
:10079000DF931F92CDB7DEB787FF0FC08F7741F091
:1007A000813041F0823041F0833039F08FEF05C065
:1007B00085E003C082E001C084E0282F30E0F90129
:1007C000E25EFF4F8491F901EC5DFF4F1491F90156
:1007D000E65DFF4F04910023D1F0882319F069836F
:1007E00067DF6981E02FF0E0EE0FFF1FEA5CFF4F4B
:1007F000A591B4919FB7611105C0F8948C911095A3
:10080000812303C0F8948C91812B8C939FBF0F9010
:10081000DF91CF911F910F910895CF93DF9387FFC1
:100820000FC08F7741F0813041F0823041F083304A
:1008300039F08FEF05C085E003C082E001C084E09D
:10084000282F30E0F901E25EFF4F8491F901EC5D61
:10085000FF4FD491F901E65DFF4FC491CC2389F09D
:10086000811126DFEC2FF0E0EE0FFF1FE05DFF4F60
:10087000A591B4912C912D2381E090E021F480E0AA
:1008800002C080E090E0DF91CF91089581B781BFF1
:0C089000FADEF3DBCBDCFECFF894FFCFE8
:10089C0001010202030405050203070F1F3F7F013C
:0208AC00030047
:00000001FF
