:1000000022C046C0C2C544C043C02CC741C040C086
:100010003FC03EC03DC03CC03BC03AC039C00102F9
:100020000000040001020408102002020202020281
:100030000000000036000000000038000000000052
:100040003700B900BF0011241FBECFE5D2E0DEBFEC
:10005000CDBF11E0A0E6B0E0E2E0FAE102C0059019
:100060000D92A830B107D9F721E0A8E0B1E001C0B6
:100070001D92A23AB207E1F710E0C4E4D0E003C059
:100080002297FE01AEDCC234D107D1F704DAADCC41
:10009000B7CFCF93DF93D82FC62F62E68EE391E0E0
:1000A0001DD26D2F8EE391E01FD26C2F8EE391E075
:1000B0001BD28EE391E0DF91CF913DC28DE391E0C1
:1000C0005CD340E855E260E070E08EE191E059D603
:1000D0006EE170E080E090E040D761E083E09AD785
:1000E00066E670E08EE191E079D88EE391E0F5D19B
:1000F00062E68EE391E0F2D160E08EE391E0F4D12C
:1001000061E88EE391E0F0D18EE391E014D28EE3CA
:1001100091E0E3D162E68EE391E0E0D161E08EE32D
:1001200091E0E2D169E28EE391E0DED18EE391E0ED
:1001300002D261E880E0ADDF69E281E0AADF6FE032
:1001400082E0A7DF6FEF83E0A4DF6FE084E0A1DF50
:100150006FEF85E09EDF6FE786E09BDF67E187E07A
:1001600098DF6AEF88E095DF61E070E080E090E082
:10017000F4C620E041E060E08EE191E0D4C58EE17C
:1001800091E07DC580910E01992787FD9095609142
:100190001101772767FD7095BDDB462F60930B013A
:1001A00080910D01992787FD909520911001622F74
:1001B000772767FD7095AEDBE62F60930A0180918B
:1001C0000C01992787FD909520910F01622F7727C9
:1001D00067FD70959FDB609309018E2F840F860F5A
:1001E000809308016CE670E08EE191E0DDD767E76F
:1001F00070E08EE191E0D8D760910B01772767FD21
:1002000070954AE050E08EE191E099D863EF70E09C
:100210008EE191E0C9D760910E01772767FD709557
:100220004AE050E08EE191E08AD863EF70E08EE121
:1002300091E0BAD760911101772767FD70954AE088
:1002400050E08EE191E07BD866E770E08EE191E0CE
:10025000ABD760910A01772767FD70954AE050E0BF
:100260008EE191E06CD863EF70E08EE191E09CD775
:1002700060910D01772767FD70954AE050E08EE1AF
:1002800091E05DD863EF70E08EE191E08DD76091F1
:100290001001772767FD70954AE050E08EE191E00C
:1002A0004ED866E770E08EE191E07ED7609109015B
:1002B000772767FD70954AE050E08EE191E03FD8E6
:1002C00063EF70E08EE191E06FD760910C017727CA
:1002D00067FD70954AE050E08EE191E030D863EF21
:1002E00070E08EE191E060D760910F01772767FDA4
:1002F00070954AE050E08EE191E021D869E770E026
:100300008EE191E051D760910801772767FD7095E4
:100310004AE050E08EE191E019D86BE770E08EE1A1
:1003200091E05CD78EE391E0D8D062E68EE391E075
:10033000D5D068E08EE391E0D7D065E58EE391E01B
:10034000D3D08EE391E0F7D061E083E0ADD664E6F0
:1003500070E080E090E001D660E083E0A5D661E83F
:1003600070E08EE191E03AD72FE031E040E151E0DA
:1003700061E171E08DE391E00DD28091080184305C
:1003800008F4A6C08EE191E09CD3892B29F06DEA98
:1003900070E08EE191E008D760911101772767FD49
:1003A00070954AE050E08EE191E0D0D762EB70E0CA
:1003B0008EE191E0F9D660911001772767FD709585
:1003C0004AE050E08EE191E0C1D767EB70E08EE14A
:1003D00091E0EAD660910F01772767FD70954AE0BA
:1003E00050E08EE191E0B2D78091110180930E012F
:1003F0008091100180930D0180910F0180930C0179
:1004000022E131E046E151E06AE171E08DE391E003
:1004100070D2882319F06CEB70E002C060ED70E0E0
:100420008EE191E0DBD66BED70E08EE191E0D6D607
:100430008EE391E052D062E68EE391E04FD068E027
:100440008EE391E051D060E08EE391E04DD08EE3F9
:1004500091E071D061EE70E08EE191E0BFD6409105
:100460001A0150911B0160911C0170911D0122E045
:1004700030E08EE191E00ED865EF70E08EE191E022
:10048000ADD64091160150911701609118017091FD
:10049000190122E030E08EE191E0FCD765EF70E0D9
:1004A0008EE191E09BD64091120150911301609131
:1004B00014017091150122E030E08EE191E0EAD75D
:1004C00065EF70E08EE191E089D68EE191E074D61F
:1004D00062E370E080E090E040C557C010924101B7
:1004E000660F609342010895E0914101E23150F4BA
:1004F000EF5FE0934101F0E0EE5BFE4F608381E04F
:1005000090E0089580E090E00895CF93C62F609129
:1005100041016F5F82E491E0F0D0109241018823A5
:1005200029F0CC2329F0ECD0811102C0CF9138C042
:1005300080E0CF91089561E0E8CF109240014093B0
:100540003F01660F61606093420161E0640F82E4E5
:1005500091E0D3D0882319F0D3D0811101C020C0FD
:1005600080E00895E0914001EF5FE0934001F0E00A
:10057000EE5BFE4F808190E0089580913F0190E016
:1005800020914001821B91090895C09AC29ABA9A9B
:10059000B89A8FEF8FB98AE28DB980EF8EB908953E
:1005A0008091540108958EB98BE29DE09A95F1F700
:1005B00000008DB9B29BFECF9AE09A95F1F700C08A
:1005C0008DB9769BF2CF8DE08A95F1F700008FB15F
:1005D0009FEF9FB9B89A0895C29AC29BFECF8DE053
:1005E0008A95F1F70000C0988AE08A95F1F700C07B
:1005F000C298C09A779905C083E08093540180E047
:10060000089581E00895AF92BF92CF92DF92EF926A
:10061000FF920F931F93CF93DF93EC01C62E80912F
:100620005401816080935401988190FD03C08260E1
:1006300080935401D1DF882309F454C0FC2C8E012F
:10064000BB24BA94AA24A394209154012370C80116
:100650000196222371F1C298D82EE92EF8018081EB
:100660008FB980EFA0DFB8988EEF9DDF9091540195
:1006700080FF0BC0892F817090FF05C081E08093BF
:10068000540180E02FC092E00DC0892F8570843026
:1006900061F4888181608883A09254019DDF81117B
:1006A00018C09AE0909354011DC09E7F909354010E
:1006B00013C0B898D82EE92E80EF75DFF80180833B
:1006C000F1E0FF1202C0BFB801C01FB88EEF6BDFB0
:1006D00003C0FC2CDC2EED2EFA9419F00D2D1E2DEE
:1006E000B3CF81E0DF91CF911F910F91FF90EF90F9
:1006F000DF90CF90BF90AF9008951092540183CFB8
:10070000C098C29AB29BFECF8AE08A95F1F700C0EA
:10071000C09A8DE08A95F1F700009EB1892F807212
:1007200095FD04C094E090935401089581E00895EC
:100730001F93CF93DF931F92CDB7DEB7162F8EE3B3
:1007400091E04983CADE6CE48EE391E0C7DE612F5D
:100750008EE391E0C9DE4981642F8EE391E0C4DE2F
:100760008EE391E00F90DF91CF911F91E4CE462F61
:1007700067E0DECF462F68E0DBCFCF93DF93EC015D
:1007800060E0F5DF60E0CE01F5DF61E0CE01DF91F2
:10079000CF91EDCF4F925F926F927F928F929F9207
:1007A000AF92BF92CF92DF92EF92FF920F931F937F
:1007B000CF93DF9300D01F92CDB7DEB77B014A0104
:1007C000590180E48B838A83898396D32B013C0172
:1007D0008EE391E0D2DE1816190664F48DD3641905
:1007E000750986099709653F71408105910584F374
:1007F00080E06BC08EE391E0B5DE43E06CE48EE315
:1008000091E09BDE79D32B013C018E010F5F1F4FDE
:1008100068018EE391E0B1DE892B49F1C8018C19A2
:100820009D090397BCF468D32B013C01F80180813A
:10083000803480F08EE391E095DEF80180835CD314
:100840006419750986099709633371058105910556
:100850006CF3CECF51D30F5F1F4F64197509860912
:100860009709653F7140810591059CF2C1CF89814F
:1008700090E0880F991F880F991F282F87FF02C0CB
:1008800023E0280F25952595F70120838A8190E0A4
:10089000880F991F880F991F282F87FF02C023E018
:1008A000280F25952595F40120838B8190E0880FF2
:1008B000991F880F991F282F87FF02C023E0280F58
:1008C00025952595F501208381E00F900F900F90DD
:1008D000DF91CF911F910F91FF90EF90DF90CF901C
:1008E000BF90AF909F908F907F906F905F904F9050
:1008F0000895CF92DF92EF92FF920F931F93CF93C1
:10090000DF9300D01F92CDB7DEB76B017A0189016A
:100910009E012F5F3F4FAE014E5F5F4FBE016D5F87
:100920007F4F38DF8823A1F16B81772767FD7095B2
:10093000872F972FBAD620E030E048EA51E41AD644
:10094000F60160837183828393836A81772767FDD1
:100950007095872F972FA9D620E030E048EA51E420
:1009600009D6F70160837183828393836981772736
:1009700067FD7095872F972F98D620E030E048EAE2
:1009800051E4F8D5F801608371838283938381E019
:100990000F900F900F90DF91CF911F910F91FF90CB
:1009A000EF90DF90CF9008952091970130919801BA
:1009B00028173907B9F4909155018091560198177D
:1009C00089F0E0915501F0E0E95AFE4F80812091D5
:1009D000550130E02F5F3F4F2F7333272093550190
:1009E00090E008958FEF9FEF08951F93CF93DF93CB
:1009F000DC015C968D919C915D97009749F481E0B4
:100A000090E013969C938E93129780E090E03BC009
:100A10005196ED91FC91529750962C915097322F10
:100A200030951FB75E964C915E9741FB772770F922
:100A300041FD6095F8944081772311F0422B01C06D
:100A400043234083EC012197F1F748E0508160FF98
:100A500002C0522B01C053235083EC012197F1F7C0
:100A60006695415099F78081772311F0832301C067
:100A7000822B80831FBF5C968D919C915D9701971F
:100A8000F1F781E090E0DF91CF911F9108952091DF
:100A90009701309198012817390781F490915501F9
:100AA00080915601981751F0E0915501F0E0E95A14
:100AB000FE4F8081992787FD909508958FEF9FEFD6
:100AC000089520919701309198012817390769F40A
:100AD000809156012091550190E0805C9F4F821BD0
:100AE000910960E470E016D7089580E090E00895E1
:100AF00020919701309198012817390739F48FB761
:100B0000F89410925601109255018FBF0895E0910C
:100B10009701F0919801E817F90769F4A389B4895E
:100B20009C918589809589238C93109298011092CD
:100B3000970181E0089580E00895CF93DF93EC0161
:100B40008A8D9B8D892BE9F0809197019091980176
:100B50008C179D07B1F0009709F0D9DF8E8D8E7F3D
:100B60008E8F1092560110925501D0939801C09328
:100B70009701EB89FC8980819D89892B808381E0A5
:100B800001C080E0DF91CF9108951F920F920FB6C0
:100B90000F9211242F933F934F935F936F937F9303
:100BA0008F939F93AF93BF93EF93FF93E091970140
:100BB000F0919801309709F451C0868DA685B785CC
:100BC000958581FF04C08C91892329F447C08C91BD
:100BD000892309F043C0A389B4899C9185898095B4
:100BE00089238C93868997890197F1F7208D318D20
:100BF000A685B785758558E040E0C9010197F1F7F2
:100C0000842F90E095958795482F6C91672309F084
:100C10004068515091F7868D81FD40958091560135
:100C200090E001968F73992720915501281749F07C
:100C3000A0915601B0E0A95ABE4F4C938093560143
:100C400003C0868D8160868F828D938D0197F1F729
:100C5000A389B4898C919589892B8C93FF91EF910D
:100C6000BF91AF919F918F917F916F915F914F91C4
:100C70003F912F910F900FBE0F901F9018952CEF62
:100C800030E0FC013183208342CF1F93CF93DF9369
:100C9000EC01162F6E8D6695617081E06827812FBB
:100CA00003D261E0812FB6D1812F90E0FC01EC5D91
:100CB000FF4FE491E88BFC01E65DFF4FE491F0E02B
:100CC000EE0FFF1FEA5CFF4F859194919A8B898B01
:100CD000DF91CF911F9108951F93CF93DF93EC0184
:100CE000162F60E0812F96D18E8D81FD03C061E0CB
:100CF000812FDAD11C87812F90E0FC01EC5DFF4F42
:100D0000E491ED87FC01E65DFF4FE491F0E0EE0F2A
:100D1000FF1FE05DFF4F859194919F878E87DF9144
:100D2000CF911F910895FF920F931F93CF93DF935D
:100D3000EC01F62E522F1B821A8208EE13E020E0FF
:100D400030E00C831D832E833F838CEF90E09983EA
:100D500088831F8A1E8A198E188E1B8E1A8E1D8EEE
:100D60001C8E8E8D8E7F50FB81F98E8F642FCE016D
:100D70008CDF6F2DCE01DF91CF911F910F91FF90EE
:100D8000ABCFCF93DF93EC019A01AB011B8E1A8E90
:100D9000198E188E1F8A1E8A60E874E88EE190E032
:100DA000EED5C9012430310520F0B9016350710935
:100DB00002C061E070E07D8F6C8F6C85663008F05A
:100DC0003EC0B901769567956431710518F063519D
:100DD000710902C061E070E07F8B6E8B069718F09E
:100DE000C901059702C081E090E0998F888FC90101
:100DF00063E070E07ED596958795969587958D30C2
:100E0000910510F00C9702C081E090E09B8F8A8FD3
:100E10008BB780628BBF2C85263018F485E390E079
:100E200002C080E090E09C8B8B8B81E001C0880F3A
:100E30002A95EAF78D8B8C8D9D8D0197F1F7CE0168
:100E4000DF91CF917ACE80B7807F80BF80B78068F6
:100E500080BF8CB580648CBD8FEF8DBD80B78760FF
:100E600080BF08951F920F920FB60F9211242F93F7
:100E70003F938F939F93AF93BF9380919A019091EB
:100E80009B01A0919C01B0919D013091990126E0B8
:100E9000230F2D3730F029E8230F0396A11DB11D34
:100EA00003C00296A11DB11D2093990180939A0160
:100EB00090939B01A0939C01B0939D0180919E0112
:100EC00090919F01A091A001B091A1010196A11D57
:100ED000B11D80939E0190939F01A093A001B093B8
:100EE000A101BF91AF919F918F913F912F910F9051
:100EF0000FBE0F901F9018952FB7F89460919A012C
:100F000070919B0180919C0190919D012FBF08954C
:100F10003FB7F89480919E0190919F01A091A0010C
:100F2000B091A10122B708B601FE05C02F3F19F00C
:100F30000196A11DB11D3FBF6627782F892F9A2FDB
:100F4000620F711D811D911D43E0660F771F881F81
:100F5000991F4A95D1F708950895CF92DF92EF92A5
:100F6000FF92CF93DF936B017C01D2DFEB01C114C1
:100F7000D104E104F10479F0EFDFCADF6C1B7D0BD3
:100F8000683E7340A0F381E0C81AD108E108F10877
:100F9000C851DC4FF2CFDF91CF91FF90EF90DF90FF
:100FA000CF9008958AB582608ABD8AB581608ABD76
:100FB00083B7887F836083BF789489B7826089BF55
:100FC00042DF86B18877866886B9379A089581307E
:100FD00031F48AB58F778ABD8AB58F7B07C082309E
:100FE00039F48AB58F7D8ABD8AB58F7E8ABD089512
:100FF000833039F480B78F7D80BF80B78F7E80BF0C
:101000000895843031F48CB58F7D8CBD8CB58F7E86
:101010008CBD0895CF93DF9387FF0FC08F7741F08A
:10102000813041F0823041F0833039F08FEF05C0DC
:1010300085E003C082E001C084E090E0FC01EC5D4B
:10104000FF4F2491FC01E65DFF4F8491882349F115
:1010500090E0880F991FFC01E45CFF4FA591B491CB
:101060008A5C9F4FFC01C591D4919FB7611108C064
:10107000F8948C91209582238C93888182230AC0D6
:10108000623051F4F8948C91322F309583238C93F5
:101090008881822B888304C0F8948C91822B8C9356
:1010A0009FBFDF91CF9108950F931F93CF93DF934D
:1010B0001F92CDB7DEB787FF0FC08F7741F0813029
:1010C00041F0823041F0833039F08FEF05C085E088
:1010D00003C082E001C084E0282F30E0F901E25E25
:1010E000FF4F8491F901EC5DFF4F1491F901E65D2A
:1010F000FF4F04910023D1F0882319F0698367DF43
:101100006981E02FF0E0EE0FFF1FEA5CFF4FA59131
:10111000B4919FB7611105C0F8948C91109581230B
:1011200003C0F8948C91812B8C939FBF0F90DF911B
:10113000CF911F910F910895CF92DF92EF92FF927E
:101140000F931F93CF93DF936C017A01EB01E60EAF
:10115000F71E00E010E0CE15DF0561F06991D601C1
:10116000ED91FC910190F081E02DC6010995080FE9
:10117000191FF1CFC801DF91CF911F910F91FF90FF
:10118000EF90DF90CF900895DB010D900020E9F7FC
:10119000AD0141505109461B570BDC01ED91FC910B
:1011A0000280F381E02D0994EFCFDC01ED91FC91F9
:1011B0000190F081E02D09940F931F93CF93DF935B
:1011C000EC016DE0F2DF8C016AE0CE01EEDF800F12
:1011D000911FDF91CF911F910F9108950F931F934E
:1011E000CF93DF93EC01D0DF8C01CE01E5DF800FE0
:1011F000911FDF91CF911F910F9108958F929F9230
:10120000AF92BF92CF92DF92EF92FF920F931F9314
:10121000CF93DF93CDB7DEB7A1970FB6F894DEBFBB
:101220000FBECDBF7C01C42EE52FCB01D22E19A25B
:1012300021E02D1510F02AE0D22E8E010F5D1F4FF8
:101240008D2C912CA12CB12C6C2D7E2FA5019401FD
:1012500074D38D2D622F44D3C81A8C2D01501109DF
:101260008A3014F4805D01C0895CF8018083211507
:1012700031054105510521F0C22EE32FCA01E4CF0B
:10128000B801C70181DFA1960FB6F894DEBF0FBE8B
:10129000CDBFDF91CF911F910F91FF90EF90DF9025
:1012A000CF90BF90AF909F908F900895CF92DF9294
:1012B000EF92FF920F931F93CF93DF93EC016A019C
:1012C0007B012115310579F4E881F9810190F081E4
:1012D000E02D642FDF91CF911F910F91FF90EF9040
:1012E000DF90CF9009942A30310501F577FF0CC0CB
:1012F0006DE25BDF8C01F094E094D094C094C11C4B
:10130000D11CE11CF11C02C000E010E02AE0B70192
:10131000A601CE0173DF800F911FDF91CF911F9146
:101320000F91FF90EF90DF90CF900895DF91CF91D4
:101330001F910F91FF90EF90DF90CF905FCF9A01B8
:10134000AB01662757FD6095762FB0CF0F931F93A3
:10135000CF93DF93EC019A01AB01662757FD6095AF
:10136000762FA4DF8C01CE0127DF800F911FDF9144
:10137000CF911F910F9108954F925F926F927F923C
:101380008F929F92AF92BF92CF92DF92EF92FF9295
:101390000F931F93CF93DF93EC016A017B01B22E71
:1013A00020E030E0A901C701B601E0D087FF09C005
:1013B0006DE2CE01FADE8C01F7FAF094F7F8F094C2
:1013C00002C000E010E0A12C60E070E080E09FE34C
:1013D000AB1439F020E030E040E251E4CBD0A394EC
:1013E000F7CF9B01AC01C701B6015CD06B017C015A
:1013F0002ED12B013C0157D19B01AC01C701B60195
:1014000050D06B017C012AE0B301A201CE01F6DECF
:10141000080F191FBB2031F06BEA70E0CE01B4DE7B
:10142000080F191F7B2C772019F120E030E040E2F3
:1014300051E4C701B601E9D16B017C0103D14B0135
:10144000AA2497FCA094BA2C2AE030E0B501A401AC
:10145000CE012CDF080F191FC501B40126D19B0155
:10146000AC01C701B6011DD06B017C017A94DBCFC2
:10147000C801DF91CF911F910F91FF90EF90DF9006
:10148000CF90BF90AF909F908F907F906F905F9024
:101490004F90089571CF81B781BF84DD0FD672D68A
:1014A000FECF5058BB27AA270ED075C166D130F0A9
:1014B0006BD120F031F49F3F11F41EF45BC10EF4A8
:1014C000E095E7FB51C1E92F77D180F3BA176207A6
:1014D00073078407950718F071F49EF58FC10EF419
:1014E000E0950B2EBA2FA02D0B01B90190010C0134
:1014F000CA01A0011124FF27591B99F0593F50F44C
:10150000503E68F11A16F040A22F232F342F4427A3
:10151000585FF3CF469537952795A795F04053959B
:10152000C9F77EF41F16BA0B620B730B840BBAF06B
:101530009150A1F0FF0FBB1F661F771F881FC2F7D6
:101540000EC0BA0F621F731F841F48F487957795EA
:101550006795B795F7959E3F08F0B3CF9395880FA1
:1015600008F09927EE0F979587950895D9D008F43C
:1015700081E008950CD00FC107D140F0FED030F0CB
:1015800021F45F3F19F0F0C0511139C1F3C014D1FB
:1015900098F39923C9F35523B1F3951B550BBB273A
:1015A000AA2762177307840738F09F5F5F4F220FE7
:1015B000331F441FAA1FA9F333D00E2E3AF0E0E8E0
:1015C00030D091505040E695001CCAF729D0FE2F2C
:1015D00027D0660F771F881FBB1F261737074807BE
:1015E000AB07B0E809F0BB0B802DBF01FF27935874
:1015F0005F4F2AF09E3F510568F0B6C000C15F3FC3
:10160000ECF3983EDCF3869577956795B795F7955B
:101610009F5FC9F7880F911D9695879597F9089553
:10162000E1E0660F771F881FBB1F621773078407EF
:10163000BA0720F0621B730B840BBA0BEE1F88F7FE
:10164000E095089504D06894B111D9C00895BCD034
:1016500088F09F5790F0B92F9927B751A0F0D1F09B
:10166000660F771F881F991F1AF0BA95C9F712C025
:10167000B13081F0C3D0B1E00895C0C0672F782F9A
:101680008827B85F39F0B93FCCF386957795679591
:10169000B395D9F73EF490958095709561957F4FFD
:1016A0008F4F9F4F0895E89409C097FB3EF49095A3
:1016B0008095709561957F4F8F4F9F4F9923A9F02B
:1016C000F92F96E9BB279395F695879577956795BA
:1016D000B795F111F8CFFAF4BB0F11F460FF1BC0FE
:1016E0006F5F7F4F8F4F9F4F16C0882311F096E991
:1016F00011C0772321F09EE8872F762F05C066233F
:1017000071F096E8862F70E060E02AF09A95660FF7
:10171000771F881FDAF7880F9695879597F90895B0
:10172000990F0008550FAA0BE0E8FEEF16161706F2
:10173000E807F907C0F012161306E407F50798F05A
:10174000621B730B840B950B39F40A2661F0232B73
:10175000242B252B21F408950A2609F4A140A695EF
:101760008FEF811D811D089597F99F6780E870E0D4
:1017700060E008959FEF80EC089500240A94161607
:10178000170618060906089500240A94121613066F
:10179000140605060895092E0394000C11F48823FD
:1017A00052F0BB0F40F4BF2B11F460FF04C06F5F19
:1017B0007F4F8F4F9F4F089557FD9058440F551FEF
:1017C00059F05F3F71F04795880F97FB991F61F0C3
:1017D0009F3F79F087950895121613061406551F3A
:1017E000F2CF4695F1DF08C0161617061806991FA6
:1017F000F1CF86957105610508940895E894BB279B
:1018000066277727CB0197F908950AD0C4CFB5DFB3
:1018100028F0BADF18F0952309F0A6CFABCFEFCFB1
:10182000CBDFA8F39923D9F35523C9F3950F50E0E3
:10183000551FAA27EE27FF27BB270024089467958A
:1018400020F4E20FF31FB41F0A1E220F331F441FA0
:10185000AA1F6695A9F7779530F4F30FB41F0A1EF7
:10186000121E08F46395330F441FAA1F221F76959A
:1018700099F7879520F4B40F0A1E121E631F440FB8
:10188000AA1F221F331F8695A9F7862F712D602D61
:1018900011249F5750408AF0E1F088234AF0EE0F60
:1018A000FF1FBB1F661F771F881F91505040A9F76D
:1018B0009E3F510570F058CFA2CF5F3FECF3983EAA
:1018C000DCF3869577956795B795F795E7959F5FD4
:1018D000C1F7FE2B880F911D9695879597F908956E
:1018E000002480FD060E660F11F08695D1F7802D3D
:1018F00008950024552704C0080E591F880F991F0A
:10190000009729F076956795B8F37105B9F7802DA2
:10191000952F089597FB072E16F4009406D077FDB7
:1019200008D049D007FC05D03EF4909581959F4F93
:101930000895709561957F4F0895A1E21A2EAA1B14
:10194000BB1BFD010DC0AA1FBB1FEE1FFF1FA2176F
:10195000B307E407F50720F0A21BB30BE40BF50B6C
:10196000661F771F881F991F1A9469F760957095F5
:10197000809590959B01AC01BD01CF010895052E86
:1019800097FB16F400940FD057FD05D0D6DF07FC67
:1019900002D046F408C050954095309521953F4FB0
:1019A0004F4F5F4F089590958095709561957F4F4B
:1019B0008F4F9F4F0895AA1BBB1B51E107C0AA1F61
:1019C000BB1FA617B70710F0A61BB70B881F991FE0
:1019D0005A95A9F780959095BC01CD010895EE0F19
:1019E000FF1F0590F491E02D099410E0C4E4D0E0CD
:1019F00003C0FE01F6DF2296C634D107D1F7F89472
:021A0000FFCF16
:101A02000000A20180004C45442030004368616E12
:101A12006765733A200029280029004C454420318B
:101A220000466F78206F6E6C696E652C206163636F
:101A3200656C6F6D65746572207465737420696E70
:101A42002070726F67726573732E2E2E0078203DA0
:101A5200200079203D20007A203D20002D2D2D2DC3
:101A62002D2D44617461206F6B2D2D2D2D2D2D0098
:101A72007469656D206F75743A20004C45442032BC
:101A8200004163636C65726174696F6E20582F59EF
:101A92002F5A3A200020670000000000F5049C083D
:081AA2006105D4044705780535
:00000001FF
